{
  "_format": "hh-sol-artifact-1",
  "contractName": "P2PLending",
  "sourceName": "contracts/lending.sol",
  "abi": [
    {
      "inputs": [
        {
          "internalType": "uint256",
          "name": "amount",
          "type": "uint256"
        },
        {
          "internalType": "uint256",
          "name": "interest",
          "type": "uint256"
        }
      ],
      "name": "createLoan",
      "outputs": [],
      "stateMutability": "nonpayable",
      "type": "function"
    },
    {
      "inputs": [
        {
          "internalType": "uint256",
          "name": "id",
          "type": "uint256"
        }
      ],
      "name": "fundLoan",
      "outputs": [],
      "stateMutability": "payable",
      "type": "function"
    },
    {
      "inputs": [],
      "name": "getLoans",
      "outputs": [
        {
          "components": [
            {
              "internalType": "uint256",
              "name": "id",
              "type": "uint256"
            },
            {
              "internalType": "address",
              "name": "borrower",
              "type": "address"
            },
            {
              "internalType": "address",
              "name": "lender",
              "type": "address"
            },
            {
              "internalType": "uint256",
              "name": "amount",
              "type": "uint256"
            },
            {
              "internalType": "uint256",
              "name": "interest",
              "type": "uint256"
            },
            {
              "internalType": "bool",
              "name": "funded",
              "type": "bool"
            },
            {
              "internalType": "bool",
              "name": "repaid",
              "type": "bool"
            }
          ],
          "internalType": "struct P2PLending.Loan[]",
          "name": "",
          "type": "tuple[]"
        }
      ],
      "stateMutability": "view",
      "type": "function"
    },
    {
      "inputs": [
        {
          "internalType": "uint256",
          "name": "",
          "type": "uint256"
        }
      ],
      "name": "loans",
      "outputs": [
        {
          "internalType": "uint256",
          "name": "id",
          "type": "uint256"
        },
        {
          "internalType": "address",
          "name": "borrower",
          "type": "address"
        },
        {
          "internalType": "address",
          "name": "lender",
          "type": "address"
        },
        {
          "internalType": "uint256",
          "name": "amount",
          "type": "uint256"
        },
        {
          "internalType": "uint256",
          "name": "interest",
          "type": "uint256"
        },
        {
          "internalType": "bool",
          "name": "funded",
          "type": "bool"
        },
        {
          "internalType": "bool",
          "name": "repaid",
          "type": "bool"
        }
      ],
      "stateMutability": "view",
      "type": "function"
    },
    {
      "inputs": [
        {
          "internalType": "uint256",
          "name": "id",
          "type": "uint256"
        }
      ],
      "name": "repayLoan",
      "outputs": [],
      "stateMutability": "payable",
      "type": "function"
    }
  ],
  "bytecode": "0x608060405234801561001057600080fd5b50610eed806100206000396000f3fe60806040526004361061004a5760003560e01c8063846b909a1461004f57806398cd90b51461006b578063aa4a871114610094578063ab7b1c89146100bf578063e1ec3c68146100db575b600080fd5b610069600480360381019061006491906108b9565b61011e565b005b34801561007757600080fd5b50610092600480360381019061008d91906108e6565b6102aa565b005b3480156100a057600080fd5b506100a9610432565b6040516100b69190610ace565b60405180910390f35b6100d960048036038101906100d491906108b9565b610591565b005b3480156100e757600080fd5b5061010260048036038101906100fd91906108b9565b6107d2565b6040516101159796959493929190610b1d565b60405180910390f35b600080828154811061013357610132610b8c565b5b906000526020600020906006020190508060050160009054906101000a900460ff1615610195576040517f08c379a000000000000000000000000000000000000000000000000000000000815260040161018c90610c18565b60405180910390fd5b806003015434146101db576040517f08c379a00000000000000000000000000000000000000000000000000000000081526004016101d290610c84565b60405180910390fd5b338160020160006101000a81548173ffffffffffffffffffffffffffffffffffffffff021916908373ffffffffffffffffffffffffffffffffffffffff16021790555060018160050160006101000a81548160ff0219169083151502179055508060010160009054906101000a900473ffffffffffffffffffffffffffffffffffffffff1673ffffffffffffffffffffffffffffffffffffffff166108fc349081150290604051600060405180830381858888f193505050501580156102a5573d6000803e3d6000fd5b505050565b60006040518060e0016040528060008054905081526020013373ffffffffffffffffffffffffffffffffffffffff168152602001600073ffffffffffffffffffffffffffffffffffffffff1681526020018481526020018381526020016000151581526020016000151581525090806001815401808255809150506001900390600052602060002090600602016000909190919091506000820151816000015560208201518160010160006101000a81548173ffffffffffffffffffffffffffffffffffffffff021916908373ffffffffffffffffffffffffffffffffffffffff16021790555060408201518160020160006101000a81548173ffffffffffffffffffffffffffffffffffffffff021916908373ffffffffffffffffffffffffffffffffffffffff160217905550606082015181600301556080820151816004015560a08201518160050160006101000a81548160ff02191690831515021790555060c08201518160050160016101000a81548160ff02191690831515021790555050505050565b60606000805480602002602001604051908101604052809291908181526020016000905b8282101561058857838290600052602060002090600602016040518060e0016040529081600082015481526020016001820160009054906101000a900473ffffffffffffffffffffffffffffffffffffffff1673ffffffffffffffffffffffffffffffffffffffff1673ffffffffffffffffffffffffffffffffffffffff1681526020016002820160009054906101000a900473ffffffffffffffffffffffffffffffffffffffff1673ffffffffffffffffffffffffffffffffffffffff1673ffffffffffffffffffffffffffffffffffffffff16815260200160038201548152602001600482015481526020016005820160009054906101000a900460ff161515151581526020016005820160019054906101000a900460ff16151515158152505081526020019060010190610456565b50505050905090565b60008082815481106105a6576105a5610b8c565b5b906000526020600020906006020190508060010160009054906101000a900473ffffffffffffffffffffffffffffffffffffffff1673ffffffffffffffffffffffffffffffffffffffff163373ffffffffffffffffffffffffffffffffffffffff1614610648576040517f08c379a000000000000000000000000000000000000000000000000000000000815260040161063f90610cf0565b60405180910390fd5b8060050160009054906101000a900460ff16610699576040517f08c379a000000000000000000000000000000000000000000000000000000000815260040161069090610d5c565b60405180910390fd5b8060050160019054906101000a900460ff16156106eb576040517f08c379a00000000000000000000000000000000000000000000000000000000081526004016106e290610dc8565b60405180910390fd5b6000816004015482600301546107019190610e17565b9050803414610745576040517f08c379a000000000000000000000000000000000000000000000000000000000815260040161073c90610e97565b60405180910390fd5b60018260050160016101000a81548160ff0219169083151502179055508160020160009054906101000a900473ffffffffffffffffffffffffffffffffffffffff1673ffffffffffffffffffffffffffffffffffffffff166108fc349081150290604051600060405180830381858888f193505050501580156107cc573d6000803e3d6000fd5b50505050565b600081815481106107e257600080fd5b90600052602060002090600602016000915090508060000154908060010160009054906101000a900473ffffffffffffffffffffffffffffffffffffffff16908060020160009054906101000a900473ffffffffffffffffffffffffffffffffffffffff16908060030154908060040154908060050160009054906101000a900460ff16908060050160019054906101000a900460ff16905087565b600080fd5b6000819050919050565b61089681610883565b81146108a157600080fd5b50565b6000813590506108b38161088d565b92915050565b6000602082840312156108cf576108ce61087e565b5b60006108dd848285016108a4565b91505092915050565b600080604083850312156108fd576108fc61087e565b5b600061090b858286016108a4565b925050602061091c858286016108a4565b9150509250929050565b600081519050919050565b600082825260208201905092915050565b6000819050602082019050919050565b61095b81610883565b82525050565b600073ffffffffffffffffffffffffffffffffffffffff82169050919050565b600061098c82610961565b9050919050565b61099c81610981565b82525050565b60008115159050919050565b6109b7816109a2565b82525050565b60e0820160008201516109d36000850182610952565b5060208201516109e66020850182610993565b5060408201516109f96040850182610993565b506060820151610a0c6060850182610952565b506080820151610a1f6080850182610952565b5060a0820151610a3260a08501826109ae565b5060c0820151610a4560c08501826109ae565b50505050565b6000610a5783836109bd565b60e08301905092915050565b6000602082019050919050565b6000610a7b82610926565b610a858185610931565b9350610a9083610942565b8060005b83811015610ac1578151610aa88882610a4b565b9750610ab383610a63565b925050600181019050610a94565b5085935050505092915050565b60006020820190508181036000830152610ae88184610a70565b905092915050565b610af981610883565b82525050565b610b0881610981565b82525050565b610b17816109a2565b82525050565b600060e082019050610b32600083018a610af0565b610b3f6020830189610aff565b610b4c6040830188610aff565b610b596060830187610af0565b610b666080830186610af0565b610b7360a0830185610b0e565b610b8060c0830184610b0e565b98975050505050505050565b7f4e487b7100000000000000000000000000000000000000000000000000000000600052603260045260246000fd5b600082825260208201905092915050565b7f416c72656164792066756e646564000000000000000000000000000000000000600082015250565b6000610c02600e83610bbb565b9150610c0d82610bcc565b602082019050919050565b60006020820190508181036000830152610c3181610bf5565b9050919050565b7f57726f6e6720616d6f756e740000000000000000000000000000000000000000600082015250565b6000610c6e600c83610bbb565b9150610c7982610c38565b602082019050919050565b60006020820190508181036000830152610c9d81610c61565b9050919050565b7f4e6f7420626f72726f7765720000000000000000000000000000000000000000600082015250565b6000610cda600c83610bbb565b9150610ce582610ca4565b602082019050919050565b60006020820190508181036000830152610d0981610ccd565b9050919050565b7f4e6f742066756e64656400000000000000000000000000000000000000000000600082015250565b6000610d46600a83610bbb565b9150610d5182610d10565b602082019050919050565b60006020820190508181036000830152610d7581610d39565b9050919050565b7f416c726561647920726570616964000000000000000000000000000000000000600082015250565b6000610db2600e83610bbb565b9150610dbd82610d7c565b602082019050919050565b60006020820190508181036000830152610de181610da5565b9050919050565b7f4e487b7100000000000000000000000000000000000000000000000000000000600052601160045260246000fd5b6000610e2282610883565b9150610e2d83610883565b9250828201905080821115610e4557610e44610de8565b5b92915050565b7f496e636f72726563742072657061796d656e7400000000000000000000000000600082015250565b6000610e81601383610bbb565b9150610e8c82610e4b565b602082019050919050565b60006020820190508181036000830152610eb081610e74565b905091905056fea26469706673582212209fa401ed3aa9a1dc68594c38bff2d5c9f3ab5528efcfcefbc18da63633f062d064736f6c63430008120033",
  "linkReferences": {},
  "deployedLinkReferences": {}
}